{
  "contractName": "Wager",
  "abi": [
    {
      "constant": false,
      "inputs": [],
      "name": "renounceOwnership",
      "outputs": [],
      "payable": false,
      "stateMutability": "nonpayable",
      "type": "function"
    },
    {
      "constant": true,
      "inputs": [],
      "name": "owner",
      "outputs": [
        {
          "name": "",
          "type": "address"
        }
      ],
      "payable": false,
      "stateMutability": "view",
      "type": "function"
    },
    {
      "constant": false,
      "inputs": [
        {
          "name": "_newOwner",
          "type": "address"
        }
      ],
      "name": "transferOwnership",
      "outputs": [],
      "payable": false,
      "stateMutability": "nonpayable",
      "type": "function"
    },
    {
      "inputs": [
        {
          "name": "_fee_percent",
          "type": "uint256"
        },
        {
          "name": "_denominator",
          "type": "uint256"
        }
      ],
      "payable": false,
      "stateMutability": "nonpayable",
      "type": "constructor"
    },
    {
      "anonymous": false,
      "inputs": [
        {
          "indexed": true,
          "name": "previousOwner",
          "type": "address"
        }
      ],
      "name": "OwnershipRenounced",
      "type": "event"
    },
    {
      "anonymous": false,
      "inputs": [
        {
          "indexed": true,
          "name": "previousOwner",
          "type": "address"
        },
        {
          "indexed": true,
          "name": "newOwner",
          "type": "address"
        }
      ],
      "name": "OwnershipTransferred",
      "type": "event"
    },
    {
      "constant": false,
      "inputs": [
        {
          "name": "_isWin",
          "type": "uint8"
        }
      ],
      "name": "betting",
      "outputs": [],
      "payable": true,
      "stateMutability": "payable",
      "type": "function"
    },
    {
      "constant": false,
      "inputs": [
        {
          "name": "_isWin",
          "type": "uint8"
        }
      ],
      "name": "withdraw",
      "outputs": [],
      "payable": false,
      "stateMutability": "nonpayable",
      "type": "function"
    },
    {
      "constant": true,
      "inputs": [
        {
          "name": "_isWin",
          "type": "uint8"
        }
      ],
      "name": "totalWager",
      "outputs": [
        {
          "name": "_result",
          "type": "uint256"
        }
      ],
      "payable": false,
      "stateMutability": "view",
      "type": "function"
    },
    {
      "constant": true,
      "inputs": [
        {
          "name": "_isWin",
          "type": "uint8"
        }
      ],
      "name": "ratioForWinner",
      "outputs": [
        {
          "name": "",
          "type": "uint256"
        }
      ],
      "payable": false,
      "stateMutability": "view",
      "type": "function"
    }
  ],
  "bytecode": "0x608060405260646001556103e860025534801561001b57600080fd5b5060405160408061154a8339810180604052810190808051906020019092919080519060200190929190505050336000806101000a81548173ffffffffffffffffffffffffffffffffffffffff021916908373ffffffffffffffffffffffffffffffffffffffff160217905550336000806101000a81548173ffffffffffffffffffffffffffffffffffffffff021916908373ffffffffffffffffffffffffffffffffffffffff16021790555081600181905550806002819055505050611463806100e76000396000f300608060405260043610610083576000357c0100000000000000000000000000000000000000000000000000000000900463ffffffff1680631ff2aa8514610088578063357db36e146100cc578063715018a6146100ef5780638da5cb5b14610106578063c6ab5d901461015d578063e241d0351461018d578063f2fde38b146101d1575b600080fd5b34801561009457600080fd5b506100b6600480360381019080803560ff169060200190929190505050610214565b6040518082815260200191505060405180910390f35b6100ed600480360381019080803560ff1690602001909291905050506106a3565b005b3480156100fb57600080fd5b506101046109f6565b005b34801561011257600080fd5b5061011b610af8565b604051808273ffffffffffffffffffffffffffffffffffffffff1673ffffffffffffffffffffffffffffffffffffffff16815260200191505060405180910390f35b34801561016957600080fd5b5061018b600480360381019080803560ff169060200190929190505050610b1d565b005b34801561019957600080fd5b506101bb600480360381019080803560ff169060200190929190505050610f64565b6040518082815260200191505060405180910390f35b3480156101dd57600080fd5b50610212600480360381019080803573ffffffffffffffffffffffffffffffffffffffff1690602001909291905050506111f3565b005b6000806000806000600281111561022757fe5b85600281111561023357fe5b141561038d5761025660058054905060048054905061125a90919063ffffffff16565b9150600092505b8183101561038c576102f06007600060048681548110151561027b57fe5b9060005260206000200160009054906101000a900473ffffffffffffffffffffffffffffffffffffffff1673ffffffffffffffffffffffffffffffffffffffff1673ffffffffffffffffffffffffffffffffffffffff168152602001908152602001600020548561125a90919063ffffffff16565b935061037d6008600060058681548110151561030857fe5b9060005260206000200160009054906101000a900473ffffffffffffffffffffffffffffffffffffffff1673ffffffffffffffffffffffffffffffffffffffff1673ffffffffffffffffffffffffffffffffffffffff168152602001908152602001600020548561125a90919063ffffffff16565b9350828060010193505061025d565b5b6001600281111561039a57fe5b8560028111156103a657fe5b1415610500576103c960058054905060038054905061125a90919063ffffffff16565b9150600092505b818310156104ff57610463600660006003868154811015156103ee57fe5b9060005260206000200160009054906101000a900473ffffffffffffffffffffffffffffffffffffffff1673ffffffffffffffffffffffffffffffffffffffff1673ffffffffffffffffffffffffffffffffffffffff168152602001908152602001600020548561125a90919063ffffffff16565b93506104f06008600060058681548110151561047b57fe5b9060005260206000200160009054906101000a900473ffffffffffffffffffffffffffffffffffffffff1673ffffffffffffffffffffffffffffffffffffffff1673ffffffffffffffffffffffffffffffffffffffff168152602001908152602001600020548561125a90919063ffffffff16565b935082806001019350506103d0565b5b60028081111561050c57fe5b85600281111561051857fe5b14156106725761053b60048054905060038054905061125a90919063ffffffff16565b9150600092505b81831015610671576105d56006600060038681548110151561056057fe5b9060005260206000200160009054906101000a900473ffffffffffffffffffffffffffffffffffffffff1673ffffffffffffffffffffffffffffffffffffffff1673ffffffffffffffffffffffffffffffffffffffff168152602001908152602001600020548561125a90919063ffffffff16565b9350610662600760006004868154811015156105ed57fe5b9060005260206000200160009054906101000a900473ffffffffffffffffffffffffffffffffffffffff1673ffffffffffffffffffffffffffffffffffffffff1673ffffffffffffffffffffffffffffffffffffffff168152602001908152602001600020548561125a90919063ffffffff16565b93508280600101935050610542565b5b61068184600154600254611276565b905061069681856112a690919063ffffffff16565b9350839350505050919050565b600060028111156106b057fe5b8160028111156106bc57fe5b14156107be5760033390806001815401808255809150509060018203906000526020600020016000909192909190916101000a81548173ffffffffffffffffffffffffffffffffffffffff021916908373ffffffffffffffffffffffffffffffffffffffff1602179055505061077a34600660003373ffffffffffffffffffffffffffffffffffffffff1673ffffffffffffffffffffffffffffffffffffffff1681526020019081526020016000205461125a90919063ffffffff16565b600660003373ffffffffffffffffffffffffffffffffffffffff1673ffffffffffffffffffffffffffffffffffffffff168152602001908152602001600020819055505b600160028111156107cb57fe5b8160028111156107d757fe5b14156108d95760043390806001815401808255809150509060018203906000526020600020016000909192909190916101000a81548173ffffffffffffffffffffffffffffffffffffffff021916908373ffffffffffffffffffffffffffffffffffffffff1602179055505061089534600760003373ffffffffffffffffffffffffffffffffffffffff1673ffffffffffffffffffffffffffffffffffffffff1681526020019081526020016000205461125a90919063ffffffff16565b600760003373ffffffffffffffffffffffffffffffffffffffff1673ffffffffffffffffffffffffffffffffffffffff168152602001908152602001600020819055505b6002808111156108e557fe5b8160028111156108f157fe5b14156109f35760053390806001815401808255809150509060018203906000526020600020016000909192909190916101000a81548173ffffffffffffffffffffffffffffffffffffffff021916908373ffffffffffffffffffffffffffffffffffffffff160217905550506109af34600860003373ffffffffffffffffffffffffffffffffffffffff1673ffffffffffffffffffffffffffffffffffffffff1681526020019081526020016000205461125a90919063ffffffff16565b600860003373ffffffffffffffffffffffffffffffffffffffff1673ffffffffffffffffffffffffffffffffffffffff168152602001908152602001600020819055505b50565b6000809054906101000a900473ffffffffffffffffffffffffffffffffffffffff1673ffffffffffffffffffffffffffffffffffffffff163373ffffffffffffffffffffffffffffffffffffffff16141515610a5157600080fd5b6000809054906101000a900473ffffffffffffffffffffffffffffffffffffffff1673ffffffffffffffffffffffffffffffffffffffff167ff8df31144d9c2f0f6b59d69b8b98abd5459d07f2742c4df920b25aae33c6482060405160405180910390a260008060006101000a81548173ffffffffffffffffffffffffffffffffffffffff021916908373ffffffffffffffffffffffffffffffffffffffff160217905550565b6000809054906101000a900473ffffffffffffffffffffffffffffffffffffffff1681565b6000806000806000809054906101000a900473ffffffffffffffffffffffffffffffffffffffff1673ffffffffffffffffffffffffffffffffffffffff163373ffffffffffffffffffffffffffffffffffffffff16141515610b7e57600080fd5b610b9b610b8a86610f64565b60025461125a90919063ffffffff16565b935060006002811115610baa57fe5b856002811115610bb657fe5b1415610cb357600092505b600380549050831015610cb257600383815481101515610bdd57fe5b9060005260206000200160009054906101000a900473ffffffffffffffffffffffffffffffffffffffff169150610c5c84600660008573ffffffffffffffffffffffffffffffffffffffff1673ffffffffffffffffffffffffffffffffffffffff168152602001908152602001600020546112bf90919063ffffffff16565b90508173ffffffffffffffffffffffffffffffffffffffff166108fc829081150290604051600060405180830381858888f19350505050158015610ca4573d6000803e3d6000fd5b508280600101935050610bc1565b5b60016002811115610cc057fe5b856002811115610ccc57fe5b1415610dc957600092505b600480549050831015610dc857600483815481101515610cf357fe5b9060005260206000200160009054906101000a900473ffffffffffffffffffffffffffffffffffffffff169150610d7284600760008573ffffffffffffffffffffffffffffffffffffffff1673ffffffffffffffffffffffffffffffffffffffff168152602001908152602001600020546112bf90919063ffffffff16565b90508173ffffffffffffffffffffffffffffffffffffffff166108fc829081150290604051600060405180830381858888f19350505050158015610dba573d6000803e3d6000fd5b508280600101935050610cd7565b5b600280811115610dd557fe5b856002811115610de157fe5b1415610ede57600092505b600580549050831015610edd57600583815481101515610e0857fe5b9060005260206000200160009054906101000a900473ffffffffffffffffffffffffffffffffffffffff169150610e8784600860008573ffffffffffffffffffffffffffffffffffffffff1673ffffffffffffffffffffffffffffffffffffffff168152602001908152602001600020546112bf90919063ffffffff16565b90508173ffffffffffffffffffffffffffffffffffffffff166108fc829081150290604051600060405180830381858888f19350505050158015610ecf573d6000803e3d6000fd5b508280600101935050610dec565b5b6000809054906101000a900473ffffffffffffffffffffffffffffffffffffffff1673ffffffffffffffffffffffffffffffffffffffff166108fc3073ffffffffffffffffffffffffffffffffffffffff16319081150290604051600060405180830381858888f19350505050158015610f5c573d6000803e3d6000fd5b505050505050565b600080600080610f7385610214565b92506000915060006002811115610f8657fe5b856002811115610f9257fe5b141561104557600090505b6003805490508110156110445761103560066000600384815481101515610fc057fe5b9060005260206000200160009054906101000a900473ffffffffffffffffffffffffffffffffffffffff1673ffffffffffffffffffffffffffffffffffffffff1673ffffffffffffffffffffffffffffffffffffffff168152602001908152602001600020548361125a90919063ffffffff16565b91508080600101915050610f9d565b5b6001600281111561105257fe5b85600281111561105e57fe5b141561111157600090505b600480549050811015611110576111016007600060048481548110151561108c57fe5b9060005260206000200160009054906101000a900473ffffffffffffffffffffffffffffffffffffffff1673ffffffffffffffffffffffffffffffffffffffff1673ffffffffffffffffffffffffffffffffffffffff168152602001908152602001600020548361125a90919063ffffffff16565b91508080600101915050611069565b5b60028081111561111d57fe5b85600281111561112957fe5b14156111dc57600090505b6005805490508110156111db576111cc6008600060058481548110151561115757fe5b9060005260206000200160009054906101000a900473ffffffffffffffffffffffffffffffffffffffff1673ffffffffffffffffffffffffffffffffffffffff1673ffffffffffffffffffffffffffffffffffffffff168152602001908152602001600020548361125a90919063ffffffff16565b91508080600101915050611134565b5b6111e982846002546112f7565b9350505050919050565b6000809054906101000a900473ffffffffffffffffffffffffffffffffffffffff1673ffffffffffffffffffffffffffffffffffffffff163373ffffffffffffffffffffffffffffffffffffffff1614151561124e57600080fd5b61125781611327565b50565b6000818301905082811015151561126d57fe5b80905092915050565b600061129d8261128f85876112bf90919063ffffffff16565b61142190919063ffffffff16565b90509392505050565b60008282111515156112b457fe5b818303905092915050565b6000808314156112d257600090506112f1565b81830290508183828115156112e357fe5b041415156112ed57fe5b8090505b92915050565b600061131e8461131084866112bf90919063ffffffff16565b61142190919063ffffffff16565b90509392505050565b600073ffffffffffffffffffffffffffffffffffffffff168173ffffffffffffffffffffffffffffffffffffffff161415151561136357600080fd5b8073ffffffffffffffffffffffffffffffffffffffff166000809054906101000a900473ffffffffffffffffffffffffffffffffffffffff1673ffffffffffffffffffffffffffffffffffffffff167f8be0079c531659141344cd1fd0a4f28419497f9722a3daafe3b4186f6b6457e060405160405180910390a3806000806101000a81548173ffffffffffffffffffffffffffffffffffffffff021916908373ffffffffffffffffffffffffffffffffffffffff16021790555050565b6000818381151561142e57fe5b049050929150505600a165627a7a723058200b3c1cfe3792d9fe233b369c652034f4a09567d06e03e46c0a542a58ba88bc990029",
  "source": "pragma solidity ^0.4.24;\n\n/*\n**\t스포츠 경기에 내기하는 컨트랙트이다.\n**\t사용자는 컨트랙트로 승팀을 선택해 이더를 송금한다.\n**\t컨트랙트 소유자(관리자)는 경기 결과를 입력하고 배당금을 분배한다.\n**\n**\t컨트랙트는 팀별로 송금받은 계좌와 금액을 기록한다.\n**\t배당금은 수수료를 제하고 남은 금액을 분배한다.\n**\t승자는 배팅한 금액과 이긴 팀에 배팅된 총 금액의 비율에 따라 배당금을 받는다.\n**\t\n**\t관리자는 배팅 제한시간을 설정할 수 있다.\n**\t사용자는 배팅 제한시간 이전에만 배팅할 수 있다.\n*/\n\nimport 'openzeppelin-solidity/contracts/ownership/Ownable.sol';\nimport 'openzeppelin-solidity/contracts/math/SafeMath.sol';\n\ncontract Wager is Ownable{\n\n\tusing SafeMath for uint;\n\n\tuint \tfee_percent = 100 ;\t// 컨트랙트 소유자가 가져가는 수수료율\n\tuint \tdenominator = 1000;\t// 천분률 \n\tenum  \tgame_result { Win, Lose, Draw }\t// 홈팀 기준 경기 결과의 경우의 수\n//\tuint \ttime_limit;\n\t\n\t// 베팅한 사람 명단\n\t// 아래 mapping에서 모든 key 값을 가져올 수 있다면 필요 없다.\n\taddress[] betterForWin;\n\taddress[] betterForLose;\n\taddress[] betterForDraw;\n\n\t// 베팅한 사람이 얼마나 베팅했는지 기록\n\tmapping (address => uint) bettingForWin;\n\tmapping (address => uint) bettingForLose;\n\tmapping (address => uint) bettingForDraw;\n\n\tconstructor(uint _fee_percent, uint _denominator) public {\n\t\towner = msg.sender;\n\t\tfee_percent = _fee_percent;\n\t\tdenominator = _denominator;\n\t}\n\n\t// 사용자가 배팅할 때 호출하는 함수이다.\n\t// 매개변수로 홈팀의 승패 여부를 받는다.\n\tfunction betting(game_result _isWin) external payable{\n\t\t// 제한시간 전인 경우만 배팅할 수 있다.\n//\t\trequire(now <= time_limit);\n\n\t\t// SafeMath\n\t\tif(_isWin == game_result.Win){\n\t\t\tbetterForWin.push( msg.sender );\n\t\t\tbettingForWin[ msg.sender ] = bettingForWin[ msg.sender ].add( msg.value );\n\t\t}\n\t\tif(_isWin == game_result.Lose){\n\t\t\tbetterForLose.push(msg.sender);\n\t\t\tbettingForLose[ msg.sender ] = bettingForLose[ msg.sender ].add( msg.value );\n\t\t}\n\t\tif(_isWin == game_result.Draw){\n\t\t\tbetterForDraw.push(msg.sender);\n\t\t\tbettingForDraw[ msg.sender ] = bettingForDraw[ msg.sender ].add( msg.value );\n\t\t}\n\t}\n\n\t// 배당금을 분배한다.\n\tfunction withdraw(game_result _isWin) external onlyOwner{\n\t\t// 승팀의 베팅한 계좌별 베팅금액 비율을 구한다.\n\t\t// 비율에 따라 패팀의 금액 수수료를 제한 후 나눠 갖는다.\n\n\t\t// 1.xx % 만들기 위해 denominator 만큼 더해준다.\n\t\t// uint _ratio = (1 * denominator) + ratioForWinner(_isWin);\n\t\t// SafeMath\n\t\tuint _ratio = denominator.add( ratioForWinner( _isWin ) );\n\n\t\tuint \ti;\t// for Loop\n\t\taddress _winner;\n\t\tuint \t_reward;\n\n\t\tif(_isWin == game_result.Win){\n\t\t\tfor(i = 0; i < betterForWin.length ; i++){\n\t\t\t\t_winner = betterForWin[i];\n\t\t\t\t_reward = bettingForWin[ _winner ].mul( _ratio );\t// 배팅한 금액 * 배당률\n\n\t\t\t\t_winner.transfer( _reward );\n\t\t\t}\n\t\t}\n\t\tif(_isWin == game_result.Lose){\n\t\t\tfor(i = 0; i < betterForLose.length ; i++){\n\t\t\t\t_winner = betterForLose[i];\n\t\t\t\t_reward = bettingForLose[ _winner ].mul( _ratio );\t// 배팅한 금액 * 배당률\n\n\t\t\t\t_winner.transfer( _reward );\n\t\t\t}\n\t\t}\n\t\tif(_isWin == game_result.Draw){\n\t\t\tfor(i = 0; i < betterForDraw.length ; i++){\n\t\t\t\t_winner = betterForDraw[i];\n\t\t\t\t_reward = bettingForDraw[ _winner ].mul( _ratio );\t// 배팅한 금액 * 배당률\n\n\t\t\t\t_winner.transfer( _reward );\n\t\t\t}\n\t\t}\n\n\n\t\t// 분배 후 잔고를 모두 가져간다. fee 기본 값 = 10%\n\t\towner.transfer(address(this).balance);\n\t}\n\n\t// 배당금의 총 합을 구한다.\n\tfunction totalWager(game_result _isWin) public view returns(uint _result){\n\t\t// SafeMath\n\n\t\tuint i;\t// for Loop\n\t\tuint numberOfLosers;\n\n\t\tif(_isWin == game_result.Win){\n\t\t\tnumberOfLosers = betterForLose.length.add( betterForDraw.length );\n\t\t\tfor(i = 0; i < numberOfLosers; i++){\n\t\t\t\t_result = _result.add( bettingForLose[ betterForLose[i] ] );\n\t\t\t\t_result = _result.add( bettingForDraw[ betterForDraw[i] ] );\n\t\t\t}\n\t\t}\n\t\tif(_isWin == game_result.Lose){\n\t\t\tnumberOfLosers = betterForWin.length.add( betterForDraw.length );\n\t\t\tfor(i = 0; i < numberOfLosers; i++){\n\t\t\t\t_result = _result.add( bettingForWin[ betterForWin[i] ] );\n\t\t\t\t_result = _result.add( bettingForDraw[ betterForDraw[i] ] );\n\t\t\t}\n\t\t}\n\t\tif(_isWin == game_result.Draw){\n\t\t\tnumberOfLosers = betterForWin.length.add( betterForLose.length );\n\t\t\tfor(i = 0; i < numberOfLosers; i++){\n\t\t\t\t_result = _result.add( bettingForWin[ betterForWin[i] ] );\n\t\t\t\t_result = _result.add( bettingForLose[ betterForLose[i] ] );\n\t\t\t}\n\t\t}\n\n\t\tuint _fee = _multiplyFraction(_result, fee_percent, denominator);\n\t\t_result = _result.sub( _fee );\n\t\t\n\t\treturn _result;\n\t}\n\n\t// 배당율을 구한다.\n\t// 분배할 때 배팅한 금액에 배당률을 곱해 지급한다.\n\tfunction ratioForWinner(game_result _isWin) public view returns(uint){\n\t\tuint _totalReward = totalWager(_isWin);\n\t\tuint _totalWinnersCache = 0;\n\n\t\tuint i;\n\t\tif(_isWin == game_result.Win){\n\t\t\tfor(i = 0; i < betterForWin.length; i++){\n\t\t\t\t// SafeMath \n\t\t\t\t_totalWinnersCache = _totalWinnersCache.add( bettingForWin[ betterForWin[i] ] );\n\t\t\t//\t_totalWinnersCache += bettingForWin[ betterForWin[i] ];\t\n\t\t\t}\n\t\t}\n\t\tif(_isWin == game_result.Lose){\n\t\t\tfor(i = 0; i < betterForLose.length; i++){\n\t\t\t\t_totalWinnersCache = _totalWinnersCache.add( bettingForLose[ betterForLose[i] ] );\n\t\t\t//\t_totalWinnersCache += bettingForLose[ betterForLose[i] ];\n\t\t\t}\n\t\t}\n\t\tif(_isWin == game_result.Draw){\n\t\t\tfor(i = 0; i < betterForDraw.length; i++){\n\t\t\t\t_totalWinnersCache = _totalWinnersCache.add( bettingForDraw[ betterForDraw[i] ] );\n\t\t\t//\t_totalWinnersCache += bettingForDraw[ betterForDraw[i] ];\n\t\t\t}\n\t\t}\n\n\t\treturn _getRatio(_totalWinnersCache, _totalReward, denominator);\n\t}\n\n\t// 배팅 제한시간 설정\n\n\t// 수수료 계산(이자 계산법)\n\t// 수수료율에 따른 수수료가 얼만지 계산한다.\n\t// 곱하기를 나누기보다 먼저 계산해야한다.\n\t// https://www.bluebear.tech/posts/how-to-handle-decimals-and-percentages-in-solidity\n\t//\n\t// numerator\t분자\n\t// denominator\t분모\n\t// return feeAmount\n\tfunction _multiplyFraction(uint _number, uint _rate, uint _denominator) internal pure returns (uint){\n\t\treturn _number.mul(_rate).div(_denominator);\t// SafeMath\n\t//\treturn (_number * _rate) / _denominator;\n\t}\n\n\t// 비율을 구하는 함수\n\t// Solidity는 부동 소수점을 지원하지 않기 때문에 이 방법을 쓴다.\n\t// 원하는 부동 소수점 자릿수 만큼 분자에 먼저 곱한다.\n\t// 패팀의 판돈을 승팀의 판돈으로 나누어 승팀의 배당률을 구한다.\n\t// \n\t// denominator(분모) : 백분률을 구하는 경우 100, 천분율 1000, 만분률 10000\n\t// return ratio\n\tfunction _getRatio(uint _winnerAmount, uint _loserAmount, uint _denominator) internal pure returns (uint){\n\t\treturn _loserAmount.mul(_denominator).div(_winnerAmount);\t// SafeMath\n\t//\treturn (_loserAmount * _denominator) / _winnerAmount;\n\t}\n}\n",
  "sourcePath": "/Users/tky476/Workspace/study/ethereum/sport-betting/contracts/Wager.sol",
  "compiler": {
    "name": "solc",
    "version": "0.4.24+commit.e67f0147.Emscripten.clang"
  },
  "schemaVersion": "2.0.0",
  "updatedAt": "2018-07-20T10:27:28.560Z"
}