{
  "contractName": "Wager",
  "abi": [
    {
      "constant": false,
      "inputs": [],
      "name": "renounceOwnership",
      "outputs": [],
      "payable": false,
      "stateMutability": "nonpayable",
      "type": "function"
    },
    {
      "constant": true,
      "inputs": [],
      "name": "owner",
      "outputs": [
        {
          "name": "",
          "type": "address"
        }
      ],
      "payable": false,
      "stateMutability": "view",
      "type": "function"
    },
    {
      "constant": false,
      "inputs": [
        {
          "name": "_newOwner",
          "type": "address"
        }
      ],
      "name": "transferOwnership",
      "outputs": [],
      "payable": false,
      "stateMutability": "nonpayable",
      "type": "function"
    },
    {
      "inputs": [
        {
          "name": "_fee_percent",
          "type": "uint256"
        },
        {
          "name": "_denominator",
          "type": "uint256"
        }
      ],
      "payable": false,
      "stateMutability": "nonpayable",
      "type": "constructor"
    },
    {
      "anonymous": false,
      "inputs": [
        {
          "indexed": true,
          "name": "previousOwner",
          "type": "address"
        }
      ],
      "name": "OwnershipRenounced",
      "type": "event"
    },
    {
      "anonymous": false,
      "inputs": [
        {
          "indexed": true,
          "name": "previousOwner",
          "type": "address"
        },
        {
          "indexed": true,
          "name": "newOwner",
          "type": "address"
        }
      ],
      "name": "OwnershipTransferred",
      "type": "event"
    },
    {
      "constant": false,
      "inputs": [
        {
          "name": "_isWin",
          "type": "uint256"
        }
      ],
      "name": "betting",
      "outputs": [],
      "payable": true,
      "stateMutability": "payable",
      "type": "function"
    },
    {
      "constant": false,
      "inputs": [
        {
          "name": "_isWin",
          "type": "uint256"
        }
      ],
      "name": "withdraw",
      "outputs": [],
      "payable": false,
      "stateMutability": "nonpayable",
      "type": "function"
    },
    {
      "constant": true,
      "inputs": [
        {
          "name": "_isWin",
          "type": "uint256"
        }
      ],
      "name": "totalWager",
      "outputs": [
        {
          "name": "_result",
          "type": "uint256"
        }
      ],
      "payable": false,
      "stateMutability": "view",
      "type": "function"
    },
    {
      "constant": true,
      "inputs": [
        {
          "name": "_isWin",
          "type": "uint256"
        }
      ],
      "name": "ratioForWinner",
      "outputs": [
        {
          "name": "",
          "type": "uint256"
        }
      ],
      "payable": false,
      "stateMutability": "view",
      "type": "function"
    }
  ],
  "bytecode": "0x608060405260646001556103e86002556000600960006101000a81548160ff02191690831515021790555034801561003657600080fd5b5060405160408061161f8339810180604052810190808051906020019092919080519060200190929190505050336000806101000a81548173ffffffffffffffffffffffffffffffffffffffff021916908373ffffffffffffffffffffffffffffffffffffffff160217905550336000806101000a81548173ffffffffffffffffffffffffffffffffffffffff021916908373ffffffffffffffffffffffffffffffffffffffff1602179055508160018190555080600281905550505061151d806101026000396000f300608060405260043610610083576000357c0100000000000000000000000000000000000000000000000000000000900463ffffffff1680631fdf1ffe146100885780632e1a7d4d146100c9578063715018a6146100f65780638da5cb5b1461010d578063d585868c14610164578063eadc56d2146101a5578063f2fde38b146101c5575b600080fd5b34801561009457600080fd5b506100b360048036038101908080359060200190929190505050610208565b6040518082815260200191505060405180910390f35b3480156100d557600080fd5b506100f4600480360381019080803590602001909291905050506104e6565b005b34801561010257600080fd5b5061010b61094c565b005b34801561011957600080fd5b50610122610a4e565b604051808273ffffffffffffffffffffffffffffffffffffffff1673ffffffffffffffffffffffffffffffffffffffff16815260200191505060405180910390f35b34801561017057600080fd5b5061018f60048036038101908080359060200190929190505050610a73565b6040518082815260200191505060405180910390f35b6101c360048036038101908080359060200190929190505050610ecd565b005b3480156101d157600080fd5b50610206600480360381019080803573ffffffffffffffffffffffffffffffffffffffff16906020019092919050505061129a565b005b60008060008061021785610a73565b92506000915060008514156102d357600090505b6003805490508110156102d2576102c36006600060038481548110151561024e57fe5b9060005260206000200160009054906101000a900473ffffffffffffffffffffffffffffffffffffffff1673ffffffffffffffffffffffffffffffffffffffff1673ffffffffffffffffffffffffffffffffffffffff168152602001908152602001600020548361130190919063ffffffff16565b9150808060010191505061022b565b5b600185141561038957600090505b600480549050811015610388576103796007600060048481548110151561030457fe5b9060005260206000200160009054906101000a900473ffffffffffffffffffffffffffffffffffffffff1673ffffffffffffffffffffffffffffffffffffffff1673ffffffffffffffffffffffffffffffffffffffff168152602001908152602001600020548361130190919063ffffffff16565b915080806001019150506102e1565b5b600285141561043f57600090505b60058054905081101561043e5761042f600860006005848154811015156103ba57fe5b9060005260206000200160009054906101000a900473ffffffffffffffffffffffffffffffffffffffff1673ffffffffffffffffffffffffffffffffffffffff1673ffffffffffffffffffffffffffffffffffffffff168152602001908152602001600020548361130190919063ffffffff16565b91508080600101915050610397565b5b6000821115801561045c5750600960009054906101000a900460ff165b156104cf576040517f08c379a000000000000000000000000000000000000000000000000000000000815260040180806020018281038252601b8152602001807f57696e6e65722773206275646769742077617320676f6e65212121000000000081525060200191505060405180910390fd5b6104dc828460025461131d565b9350505050919050565b6000806000806000809054906101000a900473ffffffffffffffffffffffffffffffffffffffff1673ffffffffffffffffffffffffffffffffffffffff163373ffffffffffffffffffffffffffffffffffffffff1614151561054757600080fd5b61056460025461055687610208565b61130190919063ffffffff16565b9350600085141561068657600092505b6003805490508310156106855760038381548110151561059057fe5b9060005260206000200160009054906101000a900473ffffffffffffffffffffffffffffffffffffffff169150610609600660008473ffffffffffffffffffffffffffffffffffffffff1673ffffffffffffffffffffffffffffffffffffffff1681526020019081526020016000205485600254611360565b90503073ffffffffffffffffffffffffffffffffffffffff1631811115151561063157600080fd5b8173ffffffffffffffffffffffffffffffffffffffff166108fc829081150290604051600060405180830381858888f19350505050158015610677573d6000803e3d6000fd5b508280600101935050610574565b5b60018514156107a657600092505b6004805490508310156107a5576004838154811015156106b057fe5b9060005260206000200160009054906101000a900473ffffffffffffffffffffffffffffffffffffffff169150610729600760008473ffffffffffffffffffffffffffffffffffffffff1673ffffffffffffffffffffffffffffffffffffffff1681526020019081526020016000205485600254611360565b90503073ffffffffffffffffffffffffffffffffffffffff1631811115151561075157600080fd5b8173ffffffffffffffffffffffffffffffffffffffff166108fc829081150290604051600060405180830381858888f19350505050158015610797573d6000803e3d6000fd5b508280600101935050610694565b5b60028514156108c657600092505b6005805490508310156108c5576005838154811015156107d057fe5b9060005260206000200160009054906101000a900473ffffffffffffffffffffffffffffffffffffffff169150610849600860008473ffffffffffffffffffffffffffffffffffffffff1673ffffffffffffffffffffffffffffffffffffffff1681526020019081526020016000205485600254611360565b90503073ffffffffffffffffffffffffffffffffffffffff1631811115151561087157600080fd5b8173ffffffffffffffffffffffffffffffffffffffff166108fc829081150290604051600060405180830381858888f193505050501580156108b7573d6000803e3d6000fd5b5082806001019350506107b4565b5b6000809054906101000a900473ffffffffffffffffffffffffffffffffffffffff1673ffffffffffffffffffffffffffffffffffffffff166108fc3073ffffffffffffffffffffffffffffffffffffffff16319081150290604051600060405180830381858888f19350505050158015610944573d6000803e3d6000fd5b505050505050565b6000809054906101000a900473ffffffffffffffffffffffffffffffffffffffff1673ffffffffffffffffffffffffffffffffffffffff163373ffffffffffffffffffffffffffffffffffffffff161415156109a757600080fd5b6000809054906101000a900473ffffffffffffffffffffffffffffffffffffffff1673ffffffffffffffffffffffffffffffffffffffff167ff8df31144d9c2f0f6b59d69b8b98abd5459d07f2742c4df920b25aae33c6482060405160405180910390a260008060006101000a81548173ffffffffffffffffffffffffffffffffffffffff021916908373ffffffffffffffffffffffffffffffffffffffff160217905550565b6000809054906101000a900473ffffffffffffffffffffffffffffffffffffffff1681565b600080600080841415610bd957600091505b600480549050821015610b2c57610b1d60076000600485815481101515610aa857fe5b9060005260206000200160009054906101000a900473ffffffffffffffffffffffffffffffffffffffff1673ffffffffffffffffffffffffffffffffffffffff1673ffffffffffffffffffffffffffffffffffffffff168152602001908152602001600020548461130190919063ffffffff16565b92508180600101925050610a85565b600091505b600580549050821015610bd857610bc960086000600585815481101515610b5457fe5b9060005260206000200160009054906101000a900473ffffffffffffffffffffffffffffffffffffffff1673ffffffffffffffffffffffffffffffffffffffff1673ffffffffffffffffffffffffffffffffffffffff168152602001908152602001600020548461130190919063ffffffff16565b92508180600101925050610b31565b5b6001841415610d3b57600091505b600380549050821015610c8e57610c7f60066000600385815481101515610c0a57fe5b9060005260206000200160009054906101000a900473ffffffffffffffffffffffffffffffffffffffff1673ffffffffffffffffffffffffffffffffffffffff1673ffffffffffffffffffffffffffffffffffffffff168152602001908152602001600020548461130190919063ffffffff16565b92508180600101925050610be7565b600091505b600580549050821015610d3a57610d2b60086000600585815481101515610cb657fe5b9060005260206000200160009054906101000a900473ffffffffffffffffffffffffffffffffffffffff1673ffffffffffffffffffffffffffffffffffffffff1673ffffffffffffffffffffffffffffffffffffffff168152602001908152602001600020548461130190919063ffffffff16565b92508180600101925050610c93565b5b6002841415610e9d57600091505b600480549050821015610df057610de160076000600485815481101515610d6c57fe5b9060005260206000200160009054906101000a900473ffffffffffffffffffffffffffffffffffffffff1673ffffffffffffffffffffffffffffffffffffffff1673ffffffffffffffffffffffffffffffffffffffff168152602001908152602001600020548461130190919063ffffffff16565b92508180600101925050610d49565b600091505b600380549050821015610e9c57610e8d60066000600385815481101515610e1857fe5b9060005260206000200160009054906101000a900473ffffffffffffffffffffffffffffffffffffffff1673ffffffffffffffffffffffffffffffffffffffff1673ffffffffffffffffffffffffffffffffffffffff168152602001908152602001600020548461130190919063ffffffff16565b92508180600101925050610df5565b5b610eac83600154600254611360565b9050610ec1818461139090919063ffffffff16565b92508292505050919050565b6001600960006101000a81548160ff0219169083151502179055506000811415610ff15760033390806001815401808255809150509060018203906000526020600020016000909192909190916101000a81548173ffffffffffffffffffffffffffffffffffffffff021916908373ffffffffffffffffffffffffffffffffffffffff16021790555050610fa934600660003373ffffffffffffffffffffffffffffffffffffffff1673ffffffffffffffffffffffffffffffffffffffff1681526020019081526020016000205461130190919063ffffffff16565b600660003373ffffffffffffffffffffffffffffffffffffffff1673ffffffffffffffffffffffffffffffffffffffff16815260200190815260200160002081905550611297565b60018114156110fa5760043390806001815401808255809150509060018203906000526020600020016000909192909190916101000a81548173ffffffffffffffffffffffffffffffffffffffff021916908373ffffffffffffffffffffffffffffffffffffffff160217905550506110b234600760003373ffffffffffffffffffffffffffffffffffffffff1673ffffffffffffffffffffffffffffffffffffffff1681526020019081526020016000205461130190919063ffffffff16565b600760003373ffffffffffffffffffffffffffffffffffffffff1673ffffffffffffffffffffffffffffffffffffffff16815260200190815260200160002081905550611297565b60028114156112035760053390806001815401808255809150509060018203906000526020600020016000909192909190916101000a81548173ffffffffffffffffffffffffffffffffffffffff021916908373ffffffffffffffffffffffffffffffffffffffff160217905550506111bb34600860003373ffffffffffffffffffffffffffffffffffffffff1673ffffffffffffffffffffffffffffffffffffffff1681526020019081526020016000205461130190919063ffffffff16565b600860003373ffffffffffffffffffffffffffffffffffffffff1673ffffffffffffffffffffffffffffffffffffffff16815260200190815260200160002081905550611297565b6040517f08c379a000000000000000000000000000000000000000000000000000000000815260040180806020018281038252602e8152602001807f576861743f3f3f20697320746865726520616e6f74686572206361736520574981526020017f4e2c204c4f53452c20445241573f00000000000000000000000000000000000081525060400191505060405180910390fd5b50565b6000809054906101000a900473ffffffffffffffffffffffffffffffffffffffff1673ffffffffffffffffffffffffffffffffffffffff163373ffffffffffffffffffffffffffffffffffffffff161415156112f557600080fd5b6112fe816113a9565b50565b6000818301905082811015151561131457fe5b80905092915050565b600080841415156113545761134d8461133f84866114a390919063ffffffff16565b6114db90919063ffffffff16565b9050611359565b600090505b9392505050565b60006113878261137985876114a390919063ffffffff16565b6114db90919063ffffffff16565b90509392505050565b600082821115151561139e57fe5b818303905092915050565b600073ffffffffffffffffffffffffffffffffffffffff168173ffffffffffffffffffffffffffffffffffffffff16141515156113e557600080fd5b8073ffffffffffffffffffffffffffffffffffffffff166000809054906101000a900473ffffffffffffffffffffffffffffffffffffffff1673ffffffffffffffffffffffffffffffffffffffff167f8be0079c531659141344cd1fd0a4f28419497f9722a3daafe3b4186f6b6457e060405160405180910390a3806000806101000a81548173ffffffffffffffffffffffffffffffffffffffff021916908373ffffffffffffffffffffffffffffffffffffffff16021790555050565b6000808314156114b657600090506114d5565b81830290508183828115156114c757fe5b041415156114d157fe5b8090505b92915050565b600081838115156114e857fe5b049050929150505600a165627a7a7230582002fc74c55eaa32483dfd167dda5042814725244ee9d843abbfe8779c6aeac9b00029",
  "source": "pragma solidity ^0.4.24;\n\n/*\n**\t스포츠 경기에 내기하는 컨트랙트이다.\n**\t사용자는 컨트랙트로 승팀을 선택해 이더를 송금한다.\n**\t컨트랙트 소유자(관리자)는 경기 결과를 입력하고 배당금을 분배한다.\n**\n**\t컨트랙트는 팀별로 송금받은 계좌와 금액을 기록한다.\n**\t배당금은 수수료를 제하고 남은 금액을 분배한다.\n**\t승자는 배팅한 금액과 이긴 팀에 배팅된 총 금액의 비율에 따라 배당금을 받는다.\n**\t\n**\t관리자는 배팅 제한시간을 설정할 수 있다.\n**\t사용자는 배팅 제한시간 이전에만 배팅할 수 있다.\n*/\n\nimport 'openzeppelin-solidity/contracts/ownership/Ownable.sol';\nimport 'openzeppelin-solidity/contracts/math/SafeMath.sol';\n\ncontract Wager is Ownable{\n\n\tusing SafeMath for uint;\n\n\tuint \tfee_percent = 100 ;\t// 컨트랙트 소유자가 가져가는 수수료율\n\tuint \tdenominator = 1000;\t// 천분률 \n//\tenum  \tgame_result { Win, Lose, Draw }\t// 홈팀 기준 경기 결과의 경우의 수\n\tuint constant WIN = 0;\n\tuint constant LOSE = 1;\n\tuint constant DRAW = 2;\n\n//\tuint \ttime_limit;\n\t\n\t// 베팅한 사람 명단\n\t// 아래 mapping에서 모든 key 값을 가져올 수 있다면 필요 없다.\n\taddress[] betterForWin;\n\taddress[] betterForLose;\n\taddress[] betterForDraw;\n\n\t// 베팅한 사람이 얼마나 베팅했는지 기록\n\tmapping (address => uint) bettingForWin;\n\tmapping (address => uint) bettingForLose;\n\tmapping (address => uint) bettingForDraw;\n\n\t// for trubleshoot INVALID OPCODE\n\tbool flagToFunctionBetting = false;\n\n\tconstructor(uint _fee_percent, uint _denominator) public {\n\t\towner = msg.sender;\n\t\tfee_percent = _fee_percent;\n\t\tdenominator = _denominator;\n\t}\n\n\t// 사용자가 배팅할 때 호출하는 함수이다.\n\t// 매개변수로 홈팀의 승패 여부를 받는다.\n\tfunction betting(uint _isWin) external payable{\n\t\t// 제한시간 전인 경우만 배팅할 수 있다.\n//\t\trequire(now <= time_limit);\n\n\t\tflagToFunctionBetting = true;\n\n\t\t// SafeMath\n\t\tif(_isWin == WIN){\n\t\t\tbetterForWin.push( msg.sender );\n\t\t\tbettingForWin[ msg.sender ] = bettingForWin[ msg.sender ].add( msg.value );\n\t\t\treturn;\n\t\t}\n\t\tif(_isWin == LOSE){\n\t\t\tbetterForLose.push(msg.sender);\n\t\t\tbettingForLose[ msg.sender ] = bettingForLose[ msg.sender ].add( msg.value );\n\t\t\treturn;\n\t\t}\n\t\tif(_isWin == DRAW){\n\t\t\tbetterForDraw.push(msg.sender);\n\t\t\tbettingForDraw[ msg.sender ] = bettingForDraw[ msg.sender ].add( msg.value );\n\t\t\treturn;\n\t\t}\n\n\t\t// for trubbleshoot INVALID OPCODE\n\t\trevert(\"What??? is there another case WIN, LOSE, DRAW?\");\n\t}\n\n\t// 배당금을 분배한다.\n\tfunction withdraw(uint _isWin) external onlyOwner{\n\t\t// 승팀의 베팅한 계좌별 베팅금액 비율을 구한다.\n\t\t// 비율에 따라 패팀의 금액 수수료를 제한 후 나눠 갖는다.\n\n\t\t// 1.xx % 만들기 위해 denominator 만큼 더해준다.\n\t\t// uint _ratio = (1 * denominator) + ratioForWinner(_isWin);\n\t\t// SafeMath\n\t\tuint _ratio = ratioForWinner(_isWin).add( denominator );\n\t\t//uint _reward_ratio = denominator.add( _ratio );\n//\t\tuint _ratio = 1100;\n\n\t\tuint \ti;\t// for Loop\n\t\taddress _winner;\n\t\tuint \t_reward;\n\n\t\tif(_isWin == WIN){\n\t\t\tfor(i = 0; i < betterForWin.length ; i++){\n\t\t\t\t_winner = betterForWin[i];\n\t\t//\t\t_reward = bettingForWin[ _winner ].mul( _ratio );\t// 배팅한 금액 * 배당률\n\t\t\t\t_reward = _multiplyFraction(bettingForWin[ _winner ]\n\t\t\t\t\t\t\t\t\t\t   , _ratio\n\t\t\t\t\t\t\t\t\t\t   , denominator);\n\n\t\t\t\trequire(_reward <= address(this).balance );\n\t\t\t\t_winner.transfer( _reward );\n\t\t\t}\n\t\t}\n\t\tif(_isWin == LOSE){\n\t\t\tfor(i = 0; i < betterForLose.length ; i++){\n\t\t\t\t_winner = betterForLose[i];\n\t\t//\t\t_reward = bettingForLose[ _winner ].mul( _ratio );\t// 배팅한 금액 * 배당률\n\t\t\t\t_reward = _multiplyFraction(bettingForLose[ _winner ]\n\t\t\t\t\t\t\t\t\t\t   , _ratio\n\t\t\t\t\t\t\t\t\t\t   , denominator);\n\n\t\t\t\trequire(_reward <= address(this).balance );\n\t\t\t\t_winner.transfer( _reward );\n\t\t\t}\n\t\t}\n\t\tif(_isWin == DRAW){\n\t\t\tfor(i = 0; i < betterForDraw.length ; i++){\n\t\t\t\t_winner = betterForDraw[i];\n\t\t//\t\t_reward = bettingForDraw[ _winner ].mul( _ratio );\t// 배팅한 금액 * 배당률\n\t\t\t\t_reward = _multiplyFraction(bettingForDraw[ _winner ]\n\t\t\t\t\t\t\t\t\t\t   , _ratio\n\t\t\t\t\t\t\t\t\t\t   , denominator);\n\n\t\t\t\trequire(_reward <= address(this).balance );\n\t\t\t\t_winner.transfer( _reward );\n\t\t\t}\n\t\t}\n\n\n\t\t// 분배 후 잔고를 모두 가져간다. fee 기본 값 = 10%\n\t\towner.transfer(address(this).balance);\n\t}\n\n\t// 배당금의 총 합을 구한다.\n\t// INVALID OPCODE\n\tfunction totalWager(uint _isWin) public view returns(uint _result){\n\t\t// SafeMath\n\n\t\tuint i;\t// for Loop\n\n\t\t// 이중에 Invalid OPCODE를 유발하는 녀석이 있다...\n\t\tif(_isWin == WIN){\n\t\t\tfor(i = 0; i < betterForLose.length; i++){\n\t\t\t\t_result = _result.add( bettingForLose[ betterForLose[i] ] );\n\t\t\t}\n\t\t\tfor(i = 0; i < betterForDraw.length; i++){\n\t\t\t\t_result = _result.add( bettingForDraw[ betterForDraw[i] ] );\n\t\t\t}\n\t\t\t// INVALID OPCODE\n\t\t//uint numberOfLosers;\n//\t\t\tnumberOfLosers = betterForLose.length.add( betterForDraw.length );\n//\t\t\tfor(i = 0; i < numberOfLosers; i++){\n//\t\t\t\t_result = _result.add( bettingForLose[ betterForLose[i] ] );\n//\t\t\t\t_result = _result.add( bettingForDraw[ betterForDraw[i] ] );\n//\t\t\t}\n\t\t}\n\t\tif(_isWin == LOSE){\n\t\t\tfor(i = 0; i < betterForWin.length; i++){\n\t\t\t\t_result = _result.add( bettingForWin[ betterForWin[i] ] );\n\t\t\t}\n\t\t\tfor(i = 0; i < betterForDraw.length; i++){\n\t\t\t\t_result = _result.add( bettingForDraw[ betterForDraw[i] ] );\n\t\t\t}\n\t\t}\n\t\tif(_isWin == DRAW){\n\t\t\tfor(i = 0; i < betterForLose.length; i++){\n\t\t\t\t_result = _result.add( bettingForLose[ betterForLose[i] ] );\n\t\t\t}\n\t\t\tfor(i = 0; i < betterForWin.length; i++){\n\t\t\t\t_result = _result.add( bettingForWin[ betterForWin[i] ] );\n\t\t\t}\n\t\t}\n\n\t\tuint _fee = _multiplyFraction(_result, fee_percent, denominator);\n\t\t_result = _result.sub( _fee );\n\t\t\n\t\treturn _result;\n\t}\n\n\t// 배당율을 구한다.\n\t// 배당률은 진팀의 판돈 총합과 이긴팀의 판톤 총합의 비율이다.\n\t// 진팀 판돈 / 이긴팀 판돈\n\t// 분배할 때 배팅한 금액에 배당률을 곱해 지급한다.\n\tfunction ratioForWinner(uint _isWin) public view returns(uint){\n\t\tuint _totalReward = totalWager(_isWin);\n\t\tuint _totalWinnersCache = 0;\n\n\t\tuint i;\n\t\tif(_isWin == WIN){\n\t\t\tfor(i = 0; i < betterForWin.length; i++){\n\t\t\t\t// SafeMath \n\t\t\t\t_totalWinnersCache = _totalWinnersCache.add( bettingForWin[ betterForWin[i] ] );\n\t\t\t//\t_totalWinnersCache += bettingForWin[ betterForWin[i] ];\t\n\t\t\t}\n\t\t}\n\t\tif(_isWin == LOSE){\n\t\t\tfor(i = 0; i < betterForLose.length; i++){\n\t\t\t\t_totalWinnersCache = _totalWinnersCache.add( bettingForLose[ betterForLose[i] ] );\n\t\t\t//\t_totalWinnersCache += bettingForLose[ betterForLose[i] ];\n\t\t\t}\n\t\t}\n\t\tif(_isWin == DRAW){\n\t\t\tfor(i = 0; i < betterForDraw.length; i++){\n\t\t\t\t_totalWinnersCache = _totalWinnersCache.add( bettingForDraw[ betterForDraw[i] ] );\n\t\t\t//\t_totalWinnersCache += bettingForDraw[ betterForDraw[i] ];\n\t\t\t}\n\t\t}\n\n\t\tif(_totalWinnersCache <= 0 && flagToFunctionBetting)\n\t\t\trevert(\"Winner's budgit was gone!!!\");\t// for trubleshot to INVALID OPCODE\n\t\telse\n\t\t\treturn _getRatio(_totalWinnersCache, _totalReward, denominator);\n\t}\n\n\t// TODO: 배팅 제한시간 설정\n\n\t// 수수료 계산(이자 계산법)\n\t// 수수료율에 따른 수수료가 얼만지 계산한다.\n\t// 곱하기를 나누기보다 먼저 계산해야한다.\n\t// https://www.bluebear.tech/posts/how-to-handle-decimals-and-percentages-in-solidity\n\t//\n\t// numerator\t분자\n\t// denominator\t분모\n\t// return feeAmount\n\tfunction _multiplyFraction(uint _number, uint _rate, uint _denominator) internal pure returns (uint){\n\t\treturn _number.mul(_rate).div(_denominator);\t// SafeMath\n\t//\treturn (_number * _rate) / _denominator;\n\t}\n\n\t// 비율을 구하는 함수\n\t// Solidity는 부동 소수점을 지원하지 않기 때문에 이 방법을 쓴다.\n\t// 원하는 부동 소수점 자릿수 만큼 분자에 먼저 곱한다.\n\t// 패팀의 판돈을 승팀의 판돈으로 나누어 승팀의 배당률을 구한다.\n\t// \n\t// denominator(분모) : 백분률을 구하는 경우 100, 천분율 1000, 만분률 10000\n\t// return ratio\n\tfunction _getRatio(uint _winnerAmount, uint _loserAmount, uint _denominator) internal pure returns (uint){\n\t\tif(_winnerAmount != 0)\n\t\t\treturn _loserAmount.mul(_denominator).div(_winnerAmount);\t// SafeMath\n\t\telse\n\t\t\treturn 0;\n\t//\treturn (_loserAmount * _denominator) / _winnerAmount;\n\t}\n}\n",
  "sourcePath": "/Users/tky476/Workspace/study/ethereum/sport-betting/contracts/Wager.sol",
  "compiler": {
    "name": "solc",
    "version": "0.4.24+commit.e67f0147.Emscripten.clang"
  },
  "schemaVersion": "2.0.1",
  "updatedAt": "2018-07-26T10:08:10.844Z"
}